{
  "contractName": "LandRecords",
  "abi": [
    {
      "inputs": [],
      "stateMutability": "nonpayable",
      "type": "constructor"
    },
    {
      "inputs": [
        {
          "internalType": "uint256",
          "name": "",
          "type": "uint256"
        }
      ],
      "name": "BuyRequest",
      "outputs": [
        {
          "internalType": "uint256",
          "name": "reqId",
          "type": "uint256"
        },
        {
          "internalType": "uint256",
          "name": "landId",
          "type": "uint256"
        },
        {
          "internalType": "address",
          "name": "buyerId",
          "type": "address"
        },
        {
          "internalType": "address",
          "name": "sellerId",
          "type": "address"
        },
        {
          "internalType": "enum LandRecords.reqStatus",
          "name": "requestStatus",
          "type": "uint8"
        }
      ],
      "stateMutability": "view",
      "type": "function",
      "constant": true
    },
    {
      "inputs": [
        {
          "internalType": "uint256",
          "name": "",
          "type": "uint256"
        }
      ],
      "name": "TransferRequest",
      "outputs": [
        {
          "internalType": "uint256",
          "name": "reqId",
          "type": "uint256"
        },
        {
          "internalType": "uint256",
          "name": "landId",
          "type": "uint256"
        },
        {
          "internalType": "address",
          "name": "sellerId",
          "type": "address"
        },
        {
          "internalType": "address",
          "name": "buyerId",
          "type": "address"
        },
        {
          "internalType": "enum LandRecords.reqStatus",
          "name": "requestStatus",
          "type": "uint8"
        }
      ],
      "stateMutability": "view",
      "type": "function",
      "constant": true
    },
    {
      "inputs": [
        {
          "internalType": "address",
          "name": "",
          "type": "address"
        }
      ],
      "name": "addressToInspector",
      "outputs": [
        {
          "internalType": "uint256",
          "name": "id",
          "type": "uint256"
        },
        {
          "internalType": "address",
          "name": "_inspectorAddress",
          "type": "address"
        },
        {
          "internalType": "string",
          "name": "name",
          "type": "string"
        },
        {
          "internalType": "uint256",
          "name": "age",
          "type": "uint256"
        },
        {
          "internalType": "string",
          "name": "city",
          "type": "string"
        }
      ],
      "stateMutability": "view",
      "type": "function",
      "constant": true
    },
    {
      "inputs": [
        {
          "internalType": "address",
          "name": "",
          "type": "address"
        }
      ],
      "name": "addressToUser",
      "outputs": [
        {
          "internalType": "string",
          "name": "name",
          "type": "string"
        },
        {
          "internalType": "string",
          "name": "email",
          "type": "string"
        },
        {
          "internalType": "address",
          "name": "id",
          "type": "address"
        },
        {
          "internalType": "uint256",
          "name": "age",
          "type": "uint256"
        },
        {
          "internalType": "string",
          "name": "city",
          "type": "string"
        },
        {
          "internalType": "string",
          "name": "document",
          "type": "string"
        },
        {
          "internalType": "string",
          "name": "aadharCard",
          "type": "string"
        },
        {
          "internalType": "string",
          "name": "panCard",
          "type": "string"
        },
        {
          "internalType": "bool",
          "name": "isVerified",
          "type": "bool"
        }
      ],
      "stateMutability": "view",
      "type": "function",
      "constant": true
    },
    {
      "inputs": [
        {
          "internalType": "uint256",
          "name": "",
          "type": "uint256"
        }
      ],
      "name": "lands",
      "outputs": [
        {
          "internalType": "uint256",
          "name": "id",
          "type": "uint256"
        },
        {
          "internalType": "address",
          "name": "landOwner",
          "type": "address"
        },
        {
          "internalType": "uint256",
          "name": "landArea",
          "type": "uint256"
        },
        {
          "internalType": "string",
          "name": "landAddress",
          "type": "string"
        },
        {
          "internalType": "string",
          "name": "surveyNumber",
          "type": "string"
        },
        {
          "internalType": "string",
          "name": "landDocument",
          "type": "string"
        },
        {
          "internalType": "bool",
          "name": "isLandVerified",
          "type": "bool"
        },
        {
          "internalType": "bool",
          "name": "isForSell",
          "type": "bool"
        }
      ],
      "stateMutability": "view",
      "type": "function",
      "constant": true
    },
    {
      "inputs": [],
      "name": "InspectorCount",
      "outputs": [
        {
          "internalType": "uint256",
          "name": "",
          "type": "uint256"
        }
      ],
      "stateMutability": "view",
      "type": "function",
      "constant": true
    },
    {
      "inputs": [],
      "name": "LandCount",
      "outputs": [
        {
          "internalType": "uint256",
          "name": "",
          "type": "uint256"
        }
      ],
      "stateMutability": "view",
      "type": "function",
      "constant": true
    },
    {
      "inputs": [],
      "name": "userCount",
      "outputs": [
        {
          "internalType": "uint256",
          "name": "",
          "type": "uint256"
        }
      ],
      "stateMutability": "view",
      "type": "function",
      "constant": true
    },
    {
      "inputs": [],
      "name": "buyRequestCount",
      "outputs": [
        {
          "internalType": "uint256",
          "name": "",
          "type": "uint256"
        }
      ],
      "stateMutability": "view",
      "type": "function",
      "constant": true
    },
    {
      "inputs": [],
      "name": "transferRequestCount",
      "outputs": [
        {
          "internalType": "uint256",
          "name": "",
          "type": "uint256"
        }
      ],
      "stateMutability": "view",
      "type": "function",
      "constant": true
    },
    {
      "inputs": [
        {
          "internalType": "address",
          "name": "_address",
          "type": "address"
        }
      ],
      "name": "isContractOwner",
      "outputs": [
        {
          "internalType": "bool",
          "name": "",
          "type": "bool"
        }
      ],
      "stateMutability": "view",
      "type": "function",
      "constant": true
    },
    {
      "inputs": [
        {
          "internalType": "address",
          "name": "_address",
          "type": "address"
        }
      ],
      "name": "changeContractOwner",
      "outputs": [],
      "stateMutability": "nonpayable",
      "type": "function"
    },
    {
      "inputs": [
        {
          "internalType": "address",
          "name": "_address",
          "type": "address"
        },
        {
          "internalType": "string",
          "name": "_name",
          "type": "string"
        },
        {
          "internalType": "uint256",
          "name": "_age",
          "type": "uint256"
        },
        {
          "internalType": "string",
          "name": "_city",
          "type": "string"
        }
      ],
      "name": "addLandInspector",
      "outputs": [
        {
          "internalType": "bool",
          "name": "",
          "type": "bool"
        }
      ],
      "stateMutability": "nonpayable",
      "type": "function"
    },
    {
      "inputs": [],
      "name": "returnAllLandIncpectors",
      "outputs": [
        {
          "internalType": "address[]",
          "name": "",
          "type": "address[]"
        }
      ],
      "stateMutability": "view",
      "type": "function",
      "constant": true
    },
    {
      "inputs": [
        {
          "internalType": "address",
          "name": "_adrs",
          "type": "address"
        }
      ],
      "name": "removeLandInspector",
      "outputs": [],
      "stateMutability": "nonpayable",
      "type": "function"
    },
    {
      "inputs": [
        {
          "internalType": "address",
          "name": "_id",
          "type": "address"
        }
      ],
      "name": "isLandInspector",
      "outputs": [
        {
          "internalType": "bool",
          "name": "",
          "type": "bool"
        }
      ],
      "stateMutability": "view",
      "type": "function",
      "constant": true
    },
    {
      "inputs": [
        {
          "internalType": "string",
          "name": "_name",
          "type": "string"
        },
        {
          "internalType": "string",
          "name": "_email",
          "type": "string"
        },
        {
          "internalType": "uint256",
          "name": "_age",
          "type": "uint256"
        },
        {
          "internalType": "string",
          "name": "_city",
          "type": "string"
        },
        {
          "internalType": "string",
          "name": "_aadharNumber",
          "type": "string"
        },
        {
          "internalType": "string",
          "name": "_panNumber",
          "type": "string"
        },
        {
          "internalType": "string",
          "name": "_document",
          "type": "string"
        }
      ],
      "name": "registerNewUser",
      "outputs": [],
      "stateMutability": "nonpayable",
      "type": "function"
    },
    {
      "inputs": [
        {
          "internalType": "address",
          "name": "_addr",
          "type": "address"
        }
      ],
      "name": "isUserRegistered",
      "outputs": [
        {
          "internalType": "bool",
          "name": "",
          "type": "bool"
        }
      ],
      "stateMutability": "view",
      "type": "function",
      "constant": true
    },
    {
      "inputs": [
        {
          "internalType": "address",
          "name": "_userId",
          "type": "address"
        }
      ],
      "name": "verifyUser",
      "outputs": [],
      "stateMutability": "nonpayable",
      "type": "function"
    },
    {
      "inputs": [
        {
          "internalType": "address",
          "name": "id",
          "type": "address"
        }
      ],
      "name": "isUserVerified",
      "outputs": [
        {
          "internalType": "bool",
          "name": "",
          "type": "bool"
        }
      ],
      "stateMutability": "view",
      "type": "function",
      "constant": true
    },
    {
      "inputs": [],
      "name": "ReturnAllUserList",
      "outputs": [
        {
          "internalType": "address[]",
          "name": "",
          "type": "address[]"
        }
      ],
      "stateMutability": "view",
      "type": "function",
      "constant": true
    },
    {
      "inputs": [
        {
          "internalType": "uint256",
          "name": "_area",
          "type": "uint256"
        },
        {
          "internalType": "string",
          "name": "_address",
          "type": "string"
        },
        {
          "internalType": "string",
          "name": "_surveyNum",
          "type": "string"
        },
        {
          "internalType": "string",
          "name": "_document",
          "type": "string"
        }
      ],
      "name": "addLand",
      "outputs": [],
      "stateMutability": "nonpayable",
      "type": "function"
    },
    {
      "inputs": [],
      "name": "ReturnAllLandList",
      "outputs": [
        {
          "internalType": "uint256[]",
          "name": "",
          "type": "uint256[]"
        }
      ],
      "stateMutability": "view",
      "type": "function",
      "constant": true
    },
    {
      "inputs": [
        {
          "internalType": "uint256",
          "name": "_id",
          "type": "uint256"
        }
      ],
      "name": "verifyLand",
      "outputs": [],
      "stateMutability": "nonpayable",
      "type": "function"
    },
    {
      "inputs": [
        {
          "internalType": "uint256",
          "name": "id",
          "type": "uint256"
        }
      ],
      "name": "isLandVerified",
      "outputs": [
        {
          "internalType": "bool",
          "name": "",
          "type": "bool"
        }
      ],
      "stateMutability": "view",
      "type": "function",
      "constant": true
    },
    {
      "inputs": [
        {
          "internalType": "address",
          "name": "id",
          "type": "address"
        }
      ],
      "name": "myAllLands",
      "outputs": [
        {
          "internalType": "uint256[]",
          "name": "",
          "type": "uint256[]"
        }
      ],
      "stateMutability": "view",
      "type": "function",
      "constant": true
    },
    {
      "inputs": [
        {
          "internalType": "uint256",
          "name": "id",
          "type": "uint256"
        }
      ],
      "name": "makeItforSell",
      "outputs": [],
      "stateMutability": "nonpayable",
      "type": "function"
    },
    {
      "inputs": [
        {
          "internalType": "uint256",
          "name": "id",
          "type": "uint256"
        }
      ],
      "name": "makeItNotforSell",
      "outputs": [],
      "stateMutability": "nonpayable",
      "type": "function"
    },
    {
      "inputs": [
        {
          "internalType": "uint256",
          "name": "_landId",
          "type": "uint256"
        }
      ],
      "name": "requestforBuy",
      "outputs": [],
      "stateMutability": "nonpayable",
      "type": "function"
    },
    {
      "inputs": [],
      "name": "myReceivedLandRequests",
      "outputs": [
        {
          "internalType": "uint256[]",
          "name": "",
          "type": "uint256[]"
        }
      ],
      "stateMutability": "view",
      "type": "function",
      "constant": true
    },
    {
      "inputs": [],
      "name": "mySentLandRequests",
      "outputs": [
        {
          "internalType": "uint256[]",
          "name": "",
          "type": "uint256[]"
        }
      ],
      "stateMutability": "view",
      "type": "function",
      "constant": true
    },
    {
      "inputs": [
        {
          "internalType": "uint256",
          "name": "_requestId",
          "type": "uint256"
        }
      ],
      "name": "acceptRequest",
      "outputs": [],
      "stateMutability": "nonpayable",
      "type": "function"
    },
    {
      "inputs": [],
      "name": "allTransferRequestList",
      "outputs": [
        {
          "internalType": "uint256[]",
          "name": "",
          "type": "uint256[]"
        }
      ],
      "stateMutability": "view",
      "type": "function",
      "constant": true
    },
    {
      "inputs": [
        {
          "internalType": "uint256",
          "name": "_requestId",
          "type": "uint256"
        }
      ],
      "name": "rejectRequest",
      "outputs": [],
      "stateMutability": "nonpayable",
      "type": "function"
    },
    {
      "inputs": [
        {
          "internalType": "uint256",
          "name": "id",
          "type": "uint256"
        }
      ],
      "name": "buyrequesteStatus",
      "outputs": [
        {
          "internalType": "bool",
          "name": "",
          "type": "bool"
        }
      ],
      "stateMutability": "view",
      "type": "function",
      "constant": true
    },
    {
      "inputs": [
        {
          "internalType": "uint256",
          "name": "id",
          "type": "uint256"
        }
      ],
      "name": "transferrequesteStatus",
      "outputs": [
        {
          "internalType": "bool",
          "name": "",
          "type": "bool"
        }
      ],
      "stateMutability": "view",
      "type": "function",
      "constant": true
    },
    {
      "inputs": [
        {
          "internalType": "uint256",
          "name": "_requestId",
          "type": "uint256"
        },
        {
          "internalType": "string",
          "name": "documentUrl",
          "type": "string"
        }
      ],
      "name": "transferOwnership",
      "outputs": [
        {
          "internalType": "bool",
          "name": "",
          "type": "bool"
        }
      ],
      "stateMutability": "nonpayable",
      "type": "function"
    }
  ],
  "bytecode": "0x608060405234801561001057600080fd5b50336000806101000a81548173ffffffffffffffffffffffffffffffffffffffff021916908373ffffffffffffffffffffffffffffffffffffffff160217905550613fd4806100606000396000f3fe608060405234801561001057600080fd5b50600436106102265760003560e01c806394cffc5c11610130578063d3b368c0116100b8578063e261f1e51161007c578063e261f1e5146106bb578063e5c64c8f146106f2578063edf5388614610710578063f9c43bdf14610748578063fa0245491461076457610226565b8063d3b368c0146105ed578063d909ecd814610609578063de11768814610627578063de26e7c914610657578063e165af871461068b57610226565b8063ace417e0116100ff578063ace417e014610535578063c26e11eb14610565578063c4f291f914610581578063d196ebf21461059f578063d2d50eab146105cf57610226565b806394cffc5c146104a95780639c32e3b4146104c5578063a43ec862146104e3578063a519e9101461050157610226565b80634ba1f098116101b35780636cbf6cf8116101825780636cbf6cf8146103db5780636d52fdd01461040b5780637517e00f1461043f57806393a44f881461045b57806393e1d7a11461047957610226565b80634ba1f098146103695780634d104352146103855780634d813120146103a1578063553a998d146103bd57610226565b806323393d77116101fa57806323393d77146102d95780632653dbda146102f75780632d7788db146103135780633ead67b51461032f578063499701b21461034b57610226565b8062b9c80b1461022b57806307973ccf1461025b578063163f75221461027957806317b73d04146102a9575b600080fd5b61024560048036038101906102409190613603565b610794565b60405161025291906139ae565b60405180910390f35b610263610834565b6040516102709190613ae0565b60405180910390f35b610293600480360381019061028e9190613419565b61083e565b6040516102a091906139ae565b60405180910390f35b6102c360048036038101906102be9190613442565b6108a5565b6040516102d091906139ae565b60405180910390f35b6102e1610b63565b6040516102ee919061398c565b60405180910390f35b610311600480360381019061030c91906134d5565b610bcd565b005b61032d60048036038101906103289190613603565b610f21565b005b61034960048036038101906103449190613419565b610ff7565b005b6103536110c8565b604051610360919061398c565b60405180910390f35b610383600480360381019061037e9190613603565b61115d565b005b61039f600480360381019061039a9190613680565b611472565b005b6103bb60048036038101906103b69190613419565b6116a9565b005b6103c5611719565b6040516103d2919061396a565b60405180910390f35b6103f560048036038101906103f09190613603565b6117b9565b60405161040291906139ae565b60405180910390f35b61042560048036038101906104209190613603565b6117e6565b604051610436959493929190613bef565b60405180910390f35b61045960048036038101906104549190613419565b611869565b005b610463611c5f565b6040516104709190613ae0565b60405180910390f35b610493600480360381019061048e9190613603565b611c69565b6040516104a091906139ae565b60405180910390f35b6104c360048036038101906104be9190613603565b611d09565b005b6104cd611da9565b6040516104da919061398c565b60405180910390f35b6104eb611e3e565b6040516104f89190613ae0565b60405180910390f35b61051b60048036038101906105169190613419565b611e48565b60405161052c959493929190613afb565b60405180910390f35b61054f600480360381019061054a9190613419565b611fae565b60405161055c91906139ae565b60405180910390f35b61057f600480360381019061057a9190613603565b612007565b005b6105896120a7565b6040516105969190613ae0565b60405180910390f35b6105b960048036038101906105b49190613419565b6120b1565b6040516105c6919061398c565b60405180910390f35b6105d7612148565b6040516105e49190613ae0565b60405180910390f35b61060760048036038101906106029190613603565b612152565b005b61061161246a565b60405161061e919061398c565b60405180910390f35b610641600480360381019061063c9190613419565b6124d4565b60405161064e91906139ae565b60405180910390f35b610671600480360381019061066c9190613603565b61253e565b604051610682959493929190613bef565b60405180910390f35b6106a560048036038101906106a09190613419565b6125c1565b6040516106b291906139ae565b60405180910390f35b6106d560048036038101906106d09190613603565b612628565b6040516106e9989796959493929190613b5c565b60405180910390f35b6106fa612842565b604051610707919061396a565b60405180910390f35b61072a60048036038101906107259190613419565b6128e2565b60405161073f999897969594939291906139c9565b60405180910390f35b610762600480360381019061075d9190613603565b612c8d565b005b61077e6004803603810190610779919061362c565b612cd1565b60405161078b91906139ae565b60405180910390f35b6000600160028111156107d0577f4e487b7100000000000000000000000000000000000000000000000000000000600052602160045260246000fd5b600f600084815260200190815260200160002060030160149054906101000a900460ff16600281111561082c577f4e487b7100000000000000000000000000000000000000000000000000000000600052602160045260246000fd5b149050919050565b6000600154905090565b6000600c60008373ffffffffffffffffffffffffffffffffffffffff1673ffffffffffffffffffffffffffffffffffffffff16815260200190815260200160002060009054906101000a900460ff161561089b57600190506108a0565b600090505b919050565b60003373ffffffffffffffffffffffffffffffffffffffff1660008054906101000a900473ffffffffffffffffffffffffffffffffffffffff1673ffffffffffffffffffffffffffffffffffffffff16146109035760009050610b5b565b3373ffffffffffffffffffffffffffffffffffffffff1660008054906101000a900473ffffffffffffffffffffffffffffffffffffffff1673ffffffffffffffffffffffffffffffffffffffff161461095b57600080fd5b6001600860008773ffffffffffffffffffffffffffffffffffffffff1673ffffffffffffffffffffffffffffffffffffffff16815260200190815260200160002060006101000a81548160ff0219169083151502179055506007600060018152602001908152602001600020859080600181540180825580915050600190039060005260206000200160009091909190916101000a81548173ffffffffffffffffffffffffffffffffffffffff021916908373ffffffffffffffffffffffffffffffffffffffff16021790555060016000815480929190610a3b90613e46565b91905055506040518060a0016040528060015481526020018673ffffffffffffffffffffffffffffffffffffffff16815260200185815260200184815260200183815250600660008773ffffffffffffffffffffffffffffffffffffffff1673ffffffffffffffffffffffffffffffffffffffff1681526020019081526020016000206000820151816000015560208201518160010160006101000a81548173ffffffffffffffffffffffffffffffffffffffff021916908373ffffffffffffffffffffffffffffffffffffffff1602179055506040820151816002019080519060200190610b2b9291906132e4565b50606082015181600301556080820151816004019080519060200190610b529291906132e4565b50905050600190505b949350505050565b60606013600060018152602001908152602001600020805480602002602001604051908101604052809291908181526020018280548015610bc357602002820191906000526020600020905b815481526020019060010190808311610baf575b5050505050905090565b600c60003373ffffffffffffffffffffffffffffffffffffffff1673ffffffffffffffffffffffffffffffffffffffff16815260200190815260200160002060009054906101000a900460ff1615610c2457600080fd5b6001600c60003373ffffffffffffffffffffffffffffffffffffffff1673ffffffffffffffffffffffffffffffffffffffff16815260200190815260200160002060006101000a81548160ff02191690831515021790555060026000815480929190610c8f90613e46565b9190505550600b600060018152602001908152602001600020339080600181540180825580915050600190039060005260206000200160009091909190916101000a81548173ffffffffffffffffffffffffffffffffffffffff021916908373ffffffffffffffffffffffffffffffffffffffff16021790555033600a6000600254815260200190815260200160002060006101000a81548173ffffffffffffffffffffffffffffffffffffffff021916908373ffffffffffffffffffffffffffffffffffffffff1602179055506040518061012001604052808881526020018781526020013373ffffffffffffffffffffffffffffffffffffffff16815260200186815260200185815260200182815260200184815260200183815260200160001515815250600960003373ffffffffffffffffffffffffffffffffffffffff1673ffffffffffffffffffffffffffffffffffffffff1681526020019081526020016000206000820151816000019080519060200190610e119291906132e4565b506020820151816001019080519060200190610e2e9291906132e4565b5060408201518160020160006101000a81548173ffffffffffffffffffffffffffffffffffffffff021916908373ffffffffffffffffffffffffffffffffffffffff160217905550606082015181600301556080820151816004019080519060200190610e9c9291906132e4565b5060a0820151816005019080519060200190610eb99291906132e4565b5060c0820151816006019080519060200190610ed69291906132e4565b5060e0820151816007019080519060200190610ef39291906132e4565b506101008201518160080160006101000a81548160ff02191690831515021790555090505050505050505050565b3373ffffffffffffffffffffffffffffffffffffffff166010600083815260200190815260200160002060030160009054906101000a900473ffffffffffffffffffffffffffffffffffffffff1673ffffffffffffffffffffffffffffffffffffffff1614610f8f57600080fd5b60026010600083815260200190815260200160002060030160146101000a81548160ff02191690836002811115610fef577f4e487b7100000000000000000000000000000000000000000000000000000000600052602160045260246000fd5b021790555050565b60008054906101000a900473ffffffffffffffffffffffffffffffffffffffff1673ffffffffffffffffffffffffffffffffffffffff163373ffffffffffffffffffffffffffffffffffffffff1614611085576040517f08c379a000000000000000000000000000000000000000000000000000000000815260040161107c90613aa0565b60405180910390fd5b806000806101000a81548173ffffffffffffffffffffffffffffffffffffffff021916908373ffffffffffffffffffffffffffffffffffffffff16021790555050565b6060601160003373ffffffffffffffffffffffffffffffffffffffff1673ffffffffffffffffffffffffffffffffffffffff16815260200190815260200160002080548060200260200160405190810160405280929190818152602001828054801561115357602002820191906000526020600020905b81548152602001906001019080831161113f575b5050505050905090565b3373ffffffffffffffffffffffffffffffffffffffff166010600083815260200190815260200160002060030160009054906101000a900473ffffffffffffffffffffffffffffffffffffffff1673ffffffffffffffffffffffffffffffffffffffff16146111cb57600080fd5b60016010600083815260200190815260200160002060030160146101000a81548160ff0219169083600281111561122b577f4e487b7100000000000000000000000000000000000000000000000000000000600052602160045260246000fd5b02179055506005600081548092919061124390613e46565b91905055506040518060a001604052806005548152602001601060008481526020019081526020016000206001015481526020013373ffffffffffffffffffffffffffffffffffffffff1681526020016010600084815260200190815260200160002060020160009054906101000a900473ffffffffffffffffffffffffffffffffffffffff1673ffffffffffffffffffffffffffffffffffffffff1681526020016000600281111561131f577f4e487b7100000000000000000000000000000000000000000000000000000000600052602160045260246000fd5b815250600f60006005548152602001908152602001600020600082015181600001556020820151816001015560408201518160020160006101000a81548173ffffffffffffffffffffffffffffffffffffffff021916908373ffffffffffffffffffffffffffffffffffffffff16021790555060608201518160030160006101000a81548173ffffffffffffffffffffffffffffffffffffffff021916908373ffffffffffffffffffffffffffffffffffffffff16021790555060808201518160030160146101000a81548160ff0219169083600281111561142a577f4e487b7100000000000000000000000000000000000000000000000000000000600052602160045260246000fd5b02179055509050506014600060018152602001908152602001600020600554908060018154018082558091505060019003906000526020600020016000909190919091505550565b61147b33611fae565b61148457600080fd5b6003600081548092919061149790613e46565b919050555060405180610100016040528060035481526020013373ffffffffffffffffffffffffffffffffffffffff16815260200185815260200184815260200183815260200182815260200160001515815260200160001515815250600e600060035481526020019081526020016000206000820151816000015560208201518160010160006101000a81548173ffffffffffffffffffffffffffffffffffffffff021916908373ffffffffffffffffffffffffffffffffffffffff1602179055506040820151816002015560608201518160030190805190602001906115809291906132e4565b50608082015181600401908051906020019061159d9291906132e4565b5060a08201518160050190805190602001906115ba9291906132e4565b5060c08201518160060160006101000a81548160ff02191690831515021790555060e08201518160060160016101000a81548160ff021916908315150217905550905050600d60003373ffffffffffffffffffffffffffffffffffffffff1673ffffffffffffffffffffffffffffffffffffffff16815260200190815260200160002060035490806001815401808255809150506001900390600052602060002001600090919091909150556013600060018152602001908152602001600020600354908060018154018082558091505060019003906000526020600020016000909190919091505550505050565b6116b2336125c1565b6116bb57600080fd5b6001600960008373ffffffffffffffffffffffffffffffffffffffff1673ffffffffffffffffffffffffffffffffffffffff16815260200190815260200160002060080160006101000a81548160ff02191690831515021790555050565b6060600b6000600181526020019081526020016000208054806020026020016040519081016040528092919081815260200182805480156117af57602002820191906000526020600020905b8160009054906101000a900473ffffffffffffffffffffffffffffffffffffffff1673ffffffffffffffffffffffffffffffffffffffff1681526020019060010190808311611765575b5050505050905090565b6000600e600083815260200190815260200160002060060160009054906101000a900460ff169050919050565b600f6020528060005260406000206000915090508060000154908060010154908060020160009054906101000a900473ffffffffffffffffffffffffffffffffffffffff16908060030160009054906101000a900473ffffffffffffffffffffffffffffffffffffffff16908060030160149054906101000a900460ff16905085565b60008054906101000a900473ffffffffffffffffffffffffffffffffffffffff1673ffffffffffffffffffffffffffffffffffffffff163373ffffffffffffffffffffffffffffffffffffffff16146118f7576040517f08c379a00000000000000000000000000000000000000000000000000000000081526004016118ee90613ac0565b60405180910390fd5b600860008273ffffffffffffffffffffffffffffffffffffffff1673ffffffffffffffffffffffffffffffffffffffff16815260200190815260200160002060009054906101000a900460ff16611983576040517f08c379a000000000000000000000000000000000000000000000000000000000815260040161197a90613a80565b60405180910390fd5b6000600860008373ffffffffffffffffffffffffffffffffffffffff1673ffffffffffffffffffffffffffffffffffffffff16815260200190815260200160002060006101000a81548160ff0219169083151502179055506000600760006001815260200190815260200160002080549050905060005b81811015611c5a578273ffffffffffffffffffffffffffffffffffffffff1660076000600181526020019081526020016000208281548110611a65577f4e487b7100000000000000000000000000000000000000000000000000000000600052603260045260246000fd5b9060005260206000200160009054906101000a900473ffffffffffffffffffffffffffffffffffffffff1673ffffffffffffffffffffffffffffffffffffffff161415611c47576007600060018152602001908152602001600020600183611acd9190613d31565b81548110611b04577f4e487b7100000000000000000000000000000000000000000000000000000000600052603260045260246000fd5b9060005260206000200160009054906101000a900473ffffffffffffffffffffffffffffffffffffffff1660076000600181526020019081526020016000208281548110611b7b577f4e487b7100000000000000000000000000000000000000000000000000000000600052603260045260246000fd5b9060005260206000200160006101000a81548173ffffffffffffffffffffffffffffffffffffffff021916908373ffffffffffffffffffffffffffffffffffffffff1602179055506007600060018152602001908152602001600020805480611c0d577f4e487b7100000000000000000000000000000000000000000000000000000000600052603160045260246000fd5b6001900381819060005260206000200160006101000a81549073ffffffffffffffffffffffffffffffffffffffff02191690559055611c5a565b8080611c5290613e46565b9150506119fa565b505050565b6000600354905090565b600060016002811115611ca5577f4e487b7100000000000000000000000000000000000000000000000000000000600052602160045260246000fd5b6010600084815260200190815260200160002060030160149054906101000a900460ff166002811115611d01577f4e487b7100000000000000000000000000000000000000000000000000000000600052602160045260246000fd5b149050919050565b3373ffffffffffffffffffffffffffffffffffffffff16600e600083815260200190815260200160002060010160009054906101000a900473ffffffffffffffffffffffffffffffffffffffff1673ffffffffffffffffffffffffffffffffffffffff1614611d7757600080fd5b6000600e600083815260200190815260200160002060060160016101000a81548160ff02191690831515021790555050565b6060601260003373ffffffffffffffffffffffffffffffffffffffff1673ffffffffffffffffffffffffffffffffffffffff168152602001908152602001600020805480602002602001604051908101604052809291908181526020018280548015611e3457602002820191906000526020600020905b815481526020019060010190808311611e20575b5050505050905090565b6000600154905090565b60066020528060005260406000206000915090508060000154908060010160009054906101000a900473ffffffffffffffffffffffffffffffffffffffff1690806002018054611e9790613e14565b80601f0160208091040260200160405190810160405280929190818152602001828054611ec390613e14565b8015611f105780601f10611ee557610100808354040283529160200191611f10565b820191906000526020600020905b815481529060010190602001808311611ef357829003601f168201915b505050505090806003015490806004018054611f2b90613e14565b80601f0160208091040260200160405190810160405280929190818152602001828054611f5790613e14565b8015611fa45780601f10611f7957610100808354040283529160200191611fa4565b820191906000526020600020905b815481529060010190602001808311611f8757829003601f168201915b5050505050905085565b6000600960008373ffffffffffffffffffffffffffffffffffffffff1673ffffffffffffffffffffffffffffffffffffffff16815260200190815260200160002060080160009054906101000a900460ff169050919050565b3373ffffffffffffffffffffffffffffffffffffffff16600e600083815260200190815260200160002060010160009054906101000a900473ffffffffffffffffffffffffffffffffffffffff1673ffffffffffffffffffffffffffffffffffffffff161461207557600080fd5b6001600e600083815260200190815260200160002060060160016101000a81548160ff02191690831515021790555050565b6000600454905090565b6060600d60008373ffffffffffffffffffffffffffffffffffffffff1673ffffffffffffffffffffffffffffffffffffffff16815260200190815260200160002080548060200260200160405190810160405280929190818152602001828054801561213c57602002820191906000526020600020905b815481526020019060010190808311612128575b50505050509050919050565b6000600554905090565b61215b33611fae565b801561216c575061216b816117b9565b5b61217557600080fd5b6004600081548092919061218890613e46565b91905055506040518060a0016040528060045481526020018281526020013373ffffffffffffffffffffffffffffffffffffffff168152602001600e600084815260200190815260200160002060010160009054906101000a900473ffffffffffffffffffffffffffffffffffffffff1673ffffffffffffffffffffffffffffffffffffffff1681526020016000600281111561224e577f4e487b7100000000000000000000000000000000000000000000000000000000600052602160045260246000fd5b815250601060006004548152602001908152602001600020600082015181600001556020820151816001015560408201518160020160006101000a81548173ffffffffffffffffffffffffffffffffffffffff021916908373ffffffffffffffffffffffffffffffffffffffff16021790555060608201518160030160006101000a81548173ffffffffffffffffffffffffffffffffffffffff021916908373ffffffffffffffffffffffffffffffffffffffff16021790555060808201518160030160146101000a81548160ff02191690836002811115612359577f4e487b7100000000000000000000000000000000000000000000000000000000600052602160045260246000fd5b021790555090505060116000600e600084815260200190815260200160002060010160009054906101000a900473ffffffffffffffffffffffffffffffffffffffff1673ffffffffffffffffffffffffffffffffffffffff1673ffffffffffffffffffffffffffffffffffffffff1681526020019081526020016000206004549080600181540180825580915050600190039060005260206000200160009091909190915055601260003373ffffffffffffffffffffffffffffffffffffffff1673ffffffffffffffffffffffffffffffffffffffff168152602001908152602001600020600454908060018154018082558091505060019003906000526020600020016000909190919091505550565b606060146000600181526020019081526020016000208054806020026020016040519081016040528092919081815260200182805480156124ca57602002820191906000526020600020905b8154815260200190600101908083116124b6575b5050505050905090565b60008060009054906101000a900473ffffffffffffffffffffffffffffffffffffffff1673ffffffffffffffffffffffffffffffffffffffff168273ffffffffffffffffffffffffffffffffffffffff1614156125345760019050612539565b600090505b919050565b60106020528060005260406000206000915090508060000154908060010154908060020160009054906101000a900473ffffffffffffffffffffffffffffffffffffffff16908060030160009054906101000a900473ffffffffffffffffffffffffffffffffffffffff16908060030160149054906101000a900460ff16905085565b6000600860008373ffffffffffffffffffffffffffffffffffffffff1673ffffffffffffffffffffffffffffffffffffffff16815260200190815260200160002060009054906101000a900460ff161561261e5760019050612623565b600090505b919050565b600e6020528060005260406000206000915090508060000154908060010160009054906101000a900473ffffffffffffffffffffffffffffffffffffffff169080600201549080600301805461267d90613e14565b80601f01602080910402602001604051908101604052809291908181526020018280546126a990613e14565b80156126f65780601f106126cb576101008083540402835291602001916126f6565b820191906000526020600020905b8154815290600101906020018083116126d957829003601f168201915b50505050509080600401805461270b90613e14565b80601f016020809104026020016040519081016040528092919081815260200182805461273790613e14565b80156127845780601f1061275957610100808354040283529160200191612784565b820191906000526020600020905b81548152906001019060200180831161276757829003601f168201915b50505050509080600501805461279990613e14565b80601f01602080910402602001604051908101604052809291908181526020018280546127c590613e14565b80156128125780601f106127e757610100808354040283529160200191612812565b820191906000526020600020905b8154815290600101906020018083116127f557829003601f168201915b5050505050908060060160009054906101000a900460ff16908060060160019054906101000a900460ff16905088565b606060076000600181526020019081526020016000208054806020026020016040519081016040528092919081815260200182805480156128d857602002820191906000526020600020905b8160009054906101000a900473ffffffffffffffffffffffffffffffffffffffff1673ffffffffffffffffffffffffffffffffffffffff168152602001906001019080831161288e575b5050505050905090565b600960205280600052604060002060009150905080600001805461290590613e14565b80601f016020809104026020016040519081016040528092919081815260200182805461293190613e14565b801561297e5780601f106129535761010080835404028352916020019161297e565b820191906000526020600020905b81548152906001019060200180831161296157829003601f168201915b50505050509080600101805461299390613e14565b80601f01602080910402602001604051908101604052809291908181526020018280546129bf90613e14565b8015612a0c5780601f106129e157610100808354040283529160200191612a0c565b820191906000526020600020905b8154815290600101906020018083116129ef57829003601f168201915b5050505050908060020160009054906101000a900473ffffffffffffffffffffffffffffffffffffffff1690806003015490806004018054612a4d90613e14565b80601f0160208091040260200160405190810160405280929190818152602001828054612a7990613e14565b8015612ac65780601f10612a9b57610100808354040283529160200191612ac6565b820191906000526020600020905b815481529060010190602001808311612aa957829003601f168201915b505050505090806005018054612adb90613e14565b80601f0160208091040260200160405190810160405280929190818152602001828054612b0790613e14565b8015612b545780601f10612b2957610100808354040283529160200191612b54565b820191906000526020600020905b815481529060010190602001808311612b3757829003601f168201915b505050505090806006018054612b6990613e14565b80601f0160208091040260200160405190810160405280929190818152602001828054612b9590613e14565b8015612be25780601f10612bb757610100808354040283529160200191612be2565b820191906000526020600020905b815481529060010190602001808311612bc557829003601f168201915b505050505090806007018054612bf790613e14565b80601f0160208091040260200160405190810160405280929190818152602001828054612c2390613e14565b8015612c705780601f10612c4557610100808354040283529160200191612c70565b820191906000526020600020905b815481529060010190602001808311612c5357829003601f168201915b5050505050908060080160009054906101000a900460ff16905089565b612c96336125c1565b612c9f57600080fd5b6001600e600083815260200190815260200160002060060160006101000a81548160ff02191690831515021790555050565b6000612cdc336125c1565b612ce557600080fd5b6001600f600085815260200190815260200160002060030160146101000a81548160ff02191690836002811115612d45577f4e487b7100000000000000000000000000000000000000000000000000000000600052602160045260246000fd5b0217905550600d6000600f600086815260200190815260200160002060030160009054906101000a900473ffffffffffffffffffffffffffffffffffffffff1673ffffffffffffffffffffffffffffffffffffffff1673ffffffffffffffffffffffffffffffffffffffff168152602001908152602001600020600f60008581526020019081526020016000206001015490806001815401808255809150506001900390600052602060002001600090919091909150556000600d6000600f600087815260200190815260200160002060020160009054906101000a900473ffffffffffffffffffffffffffffffffffffffff1673ffffffffffffffffffffffffffffffffffffffff1673ffffffffffffffffffffffffffffffffffffffff16815260200190815260200160002080549050905060005b818110156131b157600f600086815260200190815260200160002060010154600d6000600f600089815260200190815260200160002060020160009054906101000a900473ffffffffffffffffffffffffffffffffffffffff1673ffffffffffffffffffffffffffffffffffffffff1673ffffffffffffffffffffffffffffffffffffffff1681526020019081526020016000208281548110612f48577f4e487b7100000000000000000000000000000000000000000000000000000000600052603260045260246000fd5b9060005260206000200154141561319e57600d6000600f600088815260200190815260200160002060020160009054906101000a900473ffffffffffffffffffffffffffffffffffffffff1673ffffffffffffffffffffffffffffffffffffffff1673ffffffffffffffffffffffffffffffffffffffff168152602001908152602001600020600183612fdb9190613d31565b81548110613012577f4e487b7100000000000000000000000000000000000000000000000000000000600052603260045260246000fd5b9060005260206000200154600d6000600f600089815260200190815260200160002060020160009054906101000a900473ffffffffffffffffffffffffffffffffffffffff1673ffffffffffffffffffffffffffffffffffffffff1673ffffffffffffffffffffffffffffffffffffffff16815260200190815260200160002082815481106130ca577f4e487b7100000000000000000000000000000000000000000000000000000000600052603260045260246000fd5b9060005260206000200181905550600d6000600f600088815260200190815260200160002060020160009054906101000a900473ffffffffffffffffffffffffffffffffffffffff1673ffffffffffffffffffffffffffffffffffffffff1673ffffffffffffffffffffffffffffffffffffffff168152602001908152602001600020805480613183577f4e487b7100000000000000000000000000000000000000000000000000000000600052603160045260246000fd5b600190038181906000526020600020016000905590556131b1565b80806131a990613e46565b915050612e7c565b5082600e6000600f600088815260200190815260200160002060010154815260200190815260200160002060050190805190602001906131f29291906132e4565b506000600e6000600f600088815260200190815260200160002060010154815260200190815260200160002060060160016101000a81548160ff021916908315150217905550600f600085815260200190815260200160002060030160009054906101000a900473ffffffffffffffffffffffffffffffffffffffff16600e6000600f600088815260200190815260200160002060010154815260200190815260200160002060010160006101000a81548173ffffffffffffffffffffffffffffffffffffffff021916908373ffffffffffffffffffffffffffffffffffffffff160217905550600191505092915050565b8280546132f090613e14565b90600052602060002090601f0160209004810192826133125760008555613359565b82601f1061332b57805160ff1916838001178555613359565b82800160010185558215613359579182015b8281111561335857825182559160200191906001019061333d565b5b509050613366919061336a565b5090565b5b8082111561338357600081600090555060010161336b565b5090565b600061339a61339584613c73565b613c42565b9050828152602081018484840111156133b257600080fd5b6133bd848285613dd2565b509392505050565b6000813590506133d481613f70565b92915050565b600082601f8301126133eb57600080fd5b81356133fb848260208601613387565b91505092915050565b60008135905061341381613f87565b92915050565b60006020828403121561342b57600080fd5b6000613439848285016133c5565b91505092915050565b6000806000806080858703121561345857600080fd5b6000613466878288016133c5565b945050602085013567ffffffffffffffff81111561348357600080fd5b61348f878288016133da565b93505060406134a087828801613404565b925050606085013567ffffffffffffffff8111156134bd57600080fd5b6134c9878288016133da565b91505092959194509250565b600080600080600080600060e0888a0312156134f057600080fd5b600088013567ffffffffffffffff81111561350a57600080fd5b6135168a828b016133da565b975050602088013567ffffffffffffffff81111561353357600080fd5b61353f8a828b016133da565b96505060406135508a828b01613404565b955050606088013567ffffffffffffffff81111561356d57600080fd5b6135798a828b016133da565b945050608088013567ffffffffffffffff81111561359657600080fd5b6135a28a828b016133da565b93505060a088013567ffffffffffffffff8111156135bf57600080fd5b6135cb8a828b016133da565b92505060c088013567ffffffffffffffff8111156135e857600080fd5b6135f48a828b016133da565b91505092959891949750929550565b60006020828403121561361557600080fd5b600061362384828501613404565b91505092915050565b6000806040838503121561363f57600080fd5b600061364d85828601613404565b925050602083013567ffffffffffffffff81111561366a57600080fd5b613676858286016133da565b9150509250929050565b6000806000806080858703121561369657600080fd5b60006136a487828801613404565b945050602085013567ffffffffffffffff8111156136c157600080fd5b6136cd878288016133da565b935050604085013567ffffffffffffffff8111156136ea57600080fd5b6136f6878288016133da565b925050606085013567ffffffffffffffff81111561371357600080fd5b61371f878288016133da565b91505092959194509250565b6000613737838361375b565b60208301905092915050565b600061374f838361394c565b60208301905092915050565b61376481613d65565b82525050565b61377381613d65565b82525050565b600061378482613cc3565b61378e8185613cfe565b935061379983613ca3565b8060005b838110156137ca5781516137b1888261372b565b97506137bc83613ce4565b92505060018101905061379d565b5085935050505092915050565b60006137e282613cce565b6137ec8185613d0f565b93506137f783613cb3565b8060005b8381101561382857815161380f8882613743565b975061381a83613cf1565b9250506001810190506137fb565b5085935050505092915050565b61383e81613d77565b82525050565b61384d81613dc0565b82525050565b600061385e82613cd9565b6138688185613d20565b9350613878818560208601613de1565b61388181613f4b565b840191505092915050565b6000613899601883613d20565b91507f4c616e6420496e73706563746f72206e6f7420666f756e6400000000000000006000830152602082019050919050565b60006138d9601983613d20565b91507f796f7520617265206e6f7420636f6e74726163744f776e6572000000000000006000830152602082019050919050565b6000613919601983613d20565b91507f596f7520617265206e6f7420636f6e74726163744f776e6572000000000000006000830152602082019050919050565b61395581613db6565b82525050565b61396481613db6565b82525050565b600060208201905081810360008301526139848184613779565b905092915050565b600060208201905081810360008301526139a681846137d7565b905092915050565b60006020820190506139c36000830184613835565b92915050565b60006101208201905081810360008301526139e4818c613853565b905081810360208301526139f8818b613853565b9050613a07604083018a61376a565b613a14606083018961395b565b8181036080830152613a268188613853565b905081810360a0830152613a3a8187613853565b905081810360c0830152613a4e8186613853565b905081810360e0830152613a628185613853565b9050613a72610100830184613835565b9a9950505050505050505050565b60006020820190508181036000830152613a998161388c565b9050919050565b60006020820190508181036000830152613ab9816138cc565b9050919050565b60006020820190508181036000830152613ad98161390c565b9050919050565b6000602082019050613af5600083018461395b565b92915050565b600060a082019050613b10600083018861395b565b613b1d602083018761376a565b8181036040830152613b2f8186613853565b9050613b3e606083018561395b565b8181036080830152613b508184613853565b90509695505050505050565b600061010082019050613b72600083018b61395b565b613b7f602083018a61376a565b613b8c604083018961395b565b8181036060830152613b9e8188613853565b90508181036080830152613bb28187613853565b905081810360a0830152613bc68186613853565b9050613bd560c0830185613835565b613be260e0830184613835565b9998505050505050505050565b600060a082019050613c04600083018861395b565b613c11602083018761395b565b613c1e604083018661376a565b613c2b606083018561376a565b613c386080830184613844565b9695505050505050565b6000604051905081810181811067ffffffffffffffff82111715613c6957613c68613f1c565b5b8060405250919050565b600067ffffffffffffffff821115613c8e57613c8d613f1c565b5b601f19601f8301169050602081019050919050565b6000819050602082019050919050565b6000819050602082019050919050565b600081519050919050565b600081519050919050565b600081519050919050565b6000602082019050919050565b6000602082019050919050565b600082825260208201905092915050565b600082825260208201905092915050565b600082825260208201905092915050565b6000613d3c82613db6565b9150613d4783613db6565b925082821015613d5a57613d59613e8f565b5b828203905092915050565b6000613d7082613d96565b9050919050565b60008115159050919050565b6000819050613d9182613f5c565b919050565b600073ffffffffffffffffffffffffffffffffffffffff82169050919050565b6000819050919050565b6000613dcb82613d83565b9050919050565b82818337600083830152505050565b60005b83811015613dff578082015181840152602081019050613de4565b83811115613e0e576000848401525b50505050565b60006002820490506001821680613e2c57607f821691505b60208210811415613e4057613e3f613eed565b5b50919050565b6000613e5182613db6565b91507fffffffffffffffffffffffffffffffffffffffffffffffffffffffffffffffff821415613e8457613e83613e8f565b5b600182019050919050565b7f4e487b7100000000000000000000000000000000000000000000000000000000600052601160045260246000fd5b7f4e487b7100000000000000000000000000000000000000000000000000000000600052602160045260246000fd5b7f4e487b7100000000000000000000000000000000000000000000000000000000600052602260045260246000fd5b7f4e487b7100000000000000000000000000000000000000000000000000000000600052604160045260246000fd5b6000601f19601f8301169050919050565b60038110613f6d57613f6c613ebe565b5b50565b613f7981613d65565b8114613f8457600080fd5b50565b613f9081613db6565b8114613f9b57600080fd5b5056fea2646970667358221220e2ff710165db8bf4a9c8b3f72ffb154d7c2c3d709b48b216e61f66a4d078331864736f6c63430008000033",
  "immutableReferences": {},
  "source": "// SPDX-License-Identifier: GPL-3.0\n\npragma solidity ^0.8.0;\n\ncontract LandRecords {\n\n    address contractOwner;\n\n    constructor() {\n        contractOwner = msg.sender;\n    }\n\n\n    struct Land {\n        uint id;\n        address landOwner;\n        uint landArea;\n        string landAddress;\n        string surveyNumber;\n        string landDocument;\n        bool isLandVerified;\n        bool isForSell;\n    }\n\n    struct user {\n        string name;\n        string email;\n        address id;\n        uint age;\n        string city;\n        string document;\n        string aadharCard;\n        string panCard;\n        bool isVerified;\n    }\n\n    struct landInspector {\n        uint id;\n        address _inspectorAddress;\n        string name;\n        uint age;\n        string city;\n    }\n\n    struct landBuyRequest {\n        uint reqId;\n        uint landId;\n        address buyerId;\n        address sellerId;\n        reqStatus requestStatus;\n    }\n\n    struct landTrasferRequest {\n        uint reqId;\n        uint landId;\n        address sellerId;\n        address buyerId;\n        reqStatus requestStatus;\n    }\n\n    enum reqStatus { pending,accepted,rejected }\n\n    uint totalInspectors;\n    uint totalUsersCount;\n    uint totalLandsCount;\n    uint totalRequestCount;\n    uint transferCount;\n\n    mapping (address => landInspector) public addressToInspector;\n    mapping(uint => address[]) allLandInspectorList;\n    mapping(address => bool)  RegisteredInspector;\n    mapping(address => user) public addressToUser;\n    mapping(uint => address)  AllUsers;\n    mapping(uint => address[])  allUsersList;\n    mapping(address => bool)  RegisteredUser;\n    mapping(address => uint[])  usersLands;\n    mapping(uint => Land) public lands;\n    mapping(uint => landTrasferRequest) public TransferRequest;\n    mapping(uint => landBuyRequest) public BuyRequest;\n    mapping(address => uint[])  MyReceivedLandRequest;\n    mapping(address => uint[])  MySentLandRequest;\n    mapping(uint => uint[])  allLandList;\n    mapping(uint => uint[])  allTransferRequest;\n\n    function InspectorCount() public view returns(uint){\n        return totalInspectors;\n    }\n    function LandCount() public view returns(uint){\n        return totalLandsCount;\n    }\n    function userCount() public view returns(uint){\n        return totalInspectors;\n    }\n    function buyRequestCount() public view returns(uint){\n        return totalRequestCount;\n    }\n    function transferRequestCount() public view returns(uint){\n        return transferCount;\n    }\n\n    function isContractOwner(address _address) public view returns(bool){\n        if(_address==contractOwner)\n            return true;\n        else\n            return false;\n    }\n\n    function changeContractOwner(address _address)public {\n        require(msg.sender==contractOwner,\"you are not contractOwner\");\n\n        contractOwner=_address;\n    }\n\n    function addLandInspector(address _address,string memory _name, uint _age,string memory _city) public returns(bool){\n        if(contractOwner!=msg.sender)\n            return false;\n        require(contractOwner==msg.sender);\n        RegisteredInspector[_address]=true;\n        allLandInspectorList[1].push(_address);\n        totalInspectors++;\n        addressToInspector[_address] = landInspector(totalInspectors,_address,_name, _age,_city);\n        return true;\n    }\n\n    function returnAllLandIncpectors() public view returns(address[] memory)\n    {\n        return allLandInspectorList[1];\n    }\n\n    function removeLandInspector(address _adrs) public{\n        require(msg.sender==contractOwner,\"You are not contractOwner\");\n        require(RegisteredInspector[_adrs],\"Land Inspector not found\");\n        RegisteredInspector[_adrs]=false;\n\n        uint len=allLandInspectorList[1].length;\n        for(uint i=0;i<len;i++)\n        {\n            if(allLandInspectorList[1][i]==_adrs)\n            {\n                allLandInspectorList[1][i]=allLandInspectorList[1][len-1];\n                allLandInspectorList[1].pop();\n                break;\n            }\n        }\n    }\n\n    function isLandInspector(address _id) public view returns (bool) {\n        if(RegisteredInspector[_id]){\n            return true;\n        }else{\n            return false;\n        }\n    }\n\n    function registerNewUser(string memory _name,string memory _email ,uint _age, string memory _city,string memory _aadharNumber, string memory _panNumber, string memory _document) public {\n\n        require(!RegisteredUser[msg.sender]);\n\n        RegisteredUser[msg.sender] = true;\n        totalUsersCount++;\n        allUsersList[1].push(msg.sender);\n        AllUsers[totalUsersCount]=msg.sender;\n        addressToUser[msg.sender] = user( _name, _email,msg.sender, _age, _city, _document,_aadharNumber,_panNumber,false);\n        \n    }\n\n    function isUserRegistered(address _addr) public view returns(bool)\n    {\n        if(RegisteredUser[_addr]){\n            return true;\n        }else{\n            return false;\n        }\n    }\n\n    function verifyUser(address _userId) public{\n        require(isLandInspector(msg.sender));\n        addressToUser[_userId].isVerified=true;\n    }\n\n    function isUserVerified(address id) public view returns(bool){\n        return addressToUser[id].isVerified;\n    }\n\n    function ReturnAllUserList() public view returns(address[] memory)\n    {\n        return allUsersList[1];\n    }\n\n    function addLand(uint _area, string memory _address,string memory _surveyNum, string memory _document) public {\n        require(isUserVerified(msg.sender));\n        totalLandsCount++;\n        lands[totalLandsCount] = Land(totalLandsCount,msg.sender ,_area, _address, _surveyNum , _document,false,false);\n        usersLands[msg.sender].push(totalLandsCount);\n        allLandList[1].push(totalLandsCount);\n        // emit AddingLand(landsCount);\n\n    }\n\n    function ReturnAllLandList() public view returns(uint[] memory)\n    {\n        return allLandList[1];\n    }\n\n    function verifyLand(uint _id) public{\n        require(isLandInspector(msg.sender));\n        lands[_id].isLandVerified=true;\n    }\n    function isLandVerified(uint id) public view returns(bool){\n        return lands[id].isLandVerified;\n    }\n\n    function myAllLands(address id) public view returns( uint[] memory){\n        return usersLands[id];\n    }\n\n    function makeItforSell(uint id) public{\n        require(lands[id].landOwner==msg.sender);\n        lands[id].isForSell=true;\n    }\n\n    function makeItNotforSell(uint id) public{\n        require(lands[id].landOwner==msg.sender);\n        lands[id].isForSell=false;\n    }\n\n    function requestforBuy(uint _landId) public\n    {\n        require(isUserVerified(msg.sender) && isLandVerified(_landId));\n        totalRequestCount++;\n        BuyRequest[totalRequestCount]=landBuyRequest(totalRequestCount,_landId,msg.sender,lands[_landId].landOwner,reqStatus.pending);\n        MyReceivedLandRequest[lands[_landId].landOwner].push(totalRequestCount);\n        MySentLandRequest[msg.sender].push(totalRequestCount);\n    }\n\n    function myReceivedLandRequests() public view returns(uint[] memory)\n    {\n        return MyReceivedLandRequest[msg.sender];\n    }\n    function mySentLandRequests() public view returns(uint[] memory)\n    {\n        return MySentLandRequest[msg.sender];\n    }\n\n    function acceptRequest(uint _requestId) public\n    {\n        require(BuyRequest[_requestId].sellerId==msg.sender);\n        BuyRequest[_requestId].requestStatus=reqStatus.accepted;\n        transferCount++;\n        TransferRequest[transferCount] = landTrasferRequest(transferCount,BuyRequest[_requestId].landId,msg.sender,BuyRequest[_requestId].buyerId,reqStatus.pending);\n        allTransferRequest[1].push(transferCount);\n    }\n\n    function allTransferRequestList () public view returns(uint[] memory){\n        return allTransferRequest[1];\n    }\n\n    function rejectRequest(uint _requestId) public\n    {\n        require(BuyRequest[_requestId].sellerId==msg.sender);\n        BuyRequest[_requestId].requestStatus=reqStatus.rejected;\n    }\n\n    function buyrequesteStatus(uint id) public view returns(bool)\n    {\n        return (BuyRequest[id].requestStatus == reqStatus.accepted);\n    }\n\n    function transferrequesteStatus(uint id) public view returns(bool)\n    {\n        return (TransferRequest[id].requestStatus == reqStatus.accepted);\n    }\n\n    \n    function transferOwnership(uint _requestId,string memory documentUrl) public returns(bool)\n    {\n        require(isLandInspector(msg.sender));\n\n        TransferRequest[_requestId].requestStatus=reqStatus.accepted;\n        usersLands[TransferRequest[_requestId].buyerId].push(TransferRequest[_requestId].landId);\n\n        uint len=usersLands[TransferRequest[_requestId].sellerId].length;\n        for(uint i=0;i<len;i++)\n        {\n            if(usersLands[TransferRequest[_requestId].sellerId][i]==TransferRequest[_requestId].landId)\n            {\n                usersLands[TransferRequest[_requestId].sellerId][i]=usersLands[TransferRequest[_requestId].sellerId][len-1];\n                //usersLands[TransferRequest[_requestId].sellerId].length--;\n                usersLands[TransferRequest[_requestId].sellerId].pop();\n                break;\n            }\n        }\n        lands[TransferRequest[_requestId].landId].landDocument=documentUrl;\n        lands[TransferRequest[_requestId].landId].isForSell=false;\n        lands[TransferRequest[_requestId].landId].landOwner=TransferRequest[_requestId].buyerId;\n        return true;\n    }\n    \n}",
  "sourcePath": "/home/rahul/Desktop/Projects/LandRegistory/backend/land-register-truffle/contracts/LandRecords.sol",
  "compiler": {
    "name": "solc",
    "version": "0.8.0+commit.c7dfd78e.Emscripten.clang"
  },
  "schemaVersion": "3.4.13",
  "updatedAt": "2023-04-02T06:17:11.905Z",
  "networkType": "ethereum",
  "devdoc": {
    "kind": "dev",
    "methods": {},
    "version": 1
  },
  "userdoc": {
    "kind": "user",
    "methods": {},
    "version": 1
  }
}